8=FIX.4.2|9=70|35=A|34=1|49=CLIENT1|52=20250314-15:24:42.191|56=EXECUTOR|98=0|108=30|10=088|